{
  "address": "0x9D176af65E0E37945F10D6999b050163d355A536",
  "abi": [
    {
      "inputs": [],
      "stateMutability": "nonpayable",
      "type": "constructor"
    },
    {
      "inputs": [],
      "name": "NotWhitelistedAddress",
      "type": "error"
    },
    {
      "inputs": [],
      "name": "UnknownLiFiError",
      "type": "error"
    },
    {
      "anonymous": false,
      "inputs": [
        {
          "indexed": false,
          "internalType": "bool",
          "name": "success",
          "type": "bool"
        },
        {
          "indexed": false,
          "internalType": "bytes",
          "name": "returnData",
          "type": "bytes"
        }
      ],
      "name": "LiFiExecutionResult",
      "type": "event"
    },
    {
      "anonymous": false,
      "inputs": [
        {
          "indexed": false,
          "internalType": "address",
          "name": "diamond",
          "type": "address"
        }
      ],
      "name": "LiFiSetDiamond",
      "type": "event"
    },
    {
      "inputs": [
        {
          "internalType": "address",
          "name": "_token",
          "type": "address"
        }
      ],
      "name": "emergencyWithdraw",
      "outputs": [],
      "stateMutability": "nonpayable",
      "type": "function"
    },
    {
      "inputs": [
        {
          "internalType": "address",
          "name": "_tokenReceived",
          "type": "address"
        },
        {
          "internalType": "address",
          "name": "_sender",
          "type": "address"
        },
        {
          "internalType": "address",
          "name": "_approvalAddress",
          "type": "address"
        },
        {
          "internalType": "uint256",
          "name": "_sourceAssetInAmount",
          "type": "uint256"
        },
        {
          "internalType": "uint256",
          "name": "_value",
          "type": "uint256"
        },
        {
          "internalType": "bytes",
          "name": "_data",
          "type": "bytes"
        }
      ],
      "name": "lifiBridgeReceiver",
      "outputs": [],
      "stateMutability": "nonpayable",
      "type": "function"
    },
    {
      "inputs": [],
      "name": "lifiDiamond",
      "outputs": [
        {
          "internalType": "address",
          "name": "",
          "type": "address"
        }
      ],
      "stateMutability": "view",
      "type": "function"
    },
    {
      "inputs": [
        {
          "internalType": "address",
          "name": "_diamond",
          "type": "address"
        }
      ],
      "name": "setLiFiDiamond",
      "outputs": [],
      "stateMutability": "nonpayable",
      "type": "function"
    },
    {
      "inputs": [
        {
          "internalType": "enum ILiFiPortalSwapRouter.SwapIntegration",
          "name": "_route",
          "type": "uint8"
        },
        {
          "internalType": "address",
          "name": "_approvalAddress",
          "type": "address"
        },
        {
          "internalType": "address",
          "name": "_sourceAsset",
          "type": "address"
        },
        {
          "internalType": "address",
          "name": "_targetAsset",
          "type": "address"
        },
        {
          "internalType": "uint256",
          "name": "_amount",
          "type": "uint256"
        },
        {
          "internalType": "bytes",
          "name": "_data",
          "type": "bytes"
        }
      ],
      "name": "swap",
      "outputs": [],
      "stateMutability": "payable",
      "type": "function"
    },
    {
      "inputs": [
        {
          "internalType": "enum ILiFiPortalSwapRouter.SwapIntegration",
          "name": "_route",
          "type": "uint8"
        },
        {
          "internalType": "address",
          "name": "_sourceAsset",
          "type": "address"
        },
        {
          "internalType": "address",
          "name": "_approvalAddress",
          "type": "address"
        },
        {
          "internalType": "address",
          "name": "_targetAsset",
          "type": "address"
        },
        {
          "internalType": "uint256",
          "name": "_amount",
          "type": "uint256"
        },
        {
          "internalType": "uint256",
          "name": "_targetChain",
          "type": "uint256"
        },
        {
          "internalType": "bytes",
          "name": "_data",
          "type": "bytes"
        }
      ],
      "name": "swapAndBridge",
      "outputs": [],
      "stateMutability": "payable",
      "type": "function"
    }
  ],
  "args": [],
  "numDeployments": 1,
  "solcInputHash": "e0f2a4903c852d3ae013207f411369ba",
  "bytecode": "0x608060405234801561001057600080fd5b50610df1806100206000396000f3fe6080604052600436106100555760003560e01c80632bd16c8f1461005a5780636ff1c9bc14610085578063756beaf8146100a75780639cb71622146100ba578063ed4da29a146100cd578063f58b5d61146100ed575b600080fd5b34801561006657600080fd5b5061006f61010d565b60405161007c9190610a22565b60405180910390f35b34801561009157600080fd5b506100a56100a0366004610a52565b61011c565b005b6100a56100b5366004610acb565b6101e4565b6100a56100c8366004610b63565b6102b4565b3480156100d957600080fd5b506100a56100e8366004610bf2565b610382565b3480156100f957600080fd5b506100a5610108366004610a52565b610400565b600061011761047d565b905090565b6000610126610496565b60048101549091506001600160a01b0316331461015e5760405162461bcd60e51b815260040161015590610c5b565b60405180910390fd5b6101e033836001600160a01b03166370a08231306040518263ffffffff1660e01b815260040161018e9190610a22565b602060405180830381865afa1580156101ab573d6000803e3d6000fd5b505050506040513d601f19601f820116820180604052508101906101cf9190610ca7565b6001600160a01b03851691906104ba565b5050565b6101f96001600160a01b038816333087610515565b600088801561020a5761020a610cc0565b0361021d5761021d878786348686610553565b6040516370a0823160e01b81526000906001600160a01b038916906370a082319061024c903090600401610a22565b602060405180830381865afa158015610269573d6000803e3d6000fd5b505050506040513d601f19601f8201168201806040525081019061028d9190610ca7565b905080156102a9576102a96001600160a01b03891633836104ba565b505050505050505050565b6102c96001600160a01b038616333086610515565b848360008980156102dc576102dc610cc0565b036102f0576102f082898360008888610553565b6040516370a0823160e01b81526000906001600160a01b038816906370a082319061031f903090600401610a22565b602060405180830381865afa15801561033c573d6000803e3d6000fd5b505050506040513d601f19601f820116820180604052508101906103609190610ca7565b90506103766001600160a01b03881633836104ba565b50505050505050505050565b610390878686868686610553565b6040516370a0823160e01b81526000906001600160a01b038916906370a08231906103bf903090600401610a22565b602060405180830381865afa1580156103dc573d6000803e3d6000fd5b505050506040513d601f19601f820116820180604052508101906102a99190610ca7565b600061040a610496565b60048101549091506001600160a01b031633146104395760405162461bcd60e51b815260040161015590610c5b565b61044282610669565b7fec0c3f2281cc0ed0d34c1ab34cd4c9b23405a5d8f1d04cf40390775ad1fe4504826040516104719190610a22565b60405180910390a15050565b6000610487610695565b546001600160a01b0316919050565b7fc8fcad8db84d3cc18b4c41d551ea0ee66dd599cde068d998e57d5e09332c131c90565b6105108363a9059cbb60e01b84846040516024016104d9929190610cd6565b60408051601f198184030181529190526020810180516001600160e01b03166001600160e01b0319909316929092179091526106b9565b505050565b6040516001600160a01b038085166024830152831660448201526064810182905261054d9085906323b872dd60e01b906084016104d9565b50505050565b600061055d610695565b80549091506001600160a01b039081169061057b908916888861078e565b600080826001600160a01b0316878787604051610599929190610cef565b60006040518083038185875af1925050503d80600081146105d6576040519150601f19603f3d011682016040523d82523d6000602084013e6105db565b606091505b50915091508161060f578051600003610607576040516354bde35760e11b815260040160405180910390fd5b805181602001fd5b6106246001600160a01b038b1684600061078e565b7f8814423a1c5f0c831d4317ada574a74acff0e4dc3f544c1b6568efd7ed456a228282604051610655929190610d4f565b60405180910390a150505050505050505050565b6000610673610695565b80546001600160a01b0319166001600160a01b03939093169290921790915550565b7f7dd4de223be9ac96a05b8a4a61d18ace478d0b5bba4c8845c438091005ea120490565b600061070e826040518060400160405280602081526020017f5361666545524332303a206c6f772d6c6576656c2063616c6c206661696c6564815250856001600160a01b03166108929092919063ffffffff16565b905080516000148061072f57508080602001905181019061072f9190610d6a565b6105105760405162461bcd60e51b815260206004820152602a60248201527f5361666545524332303a204552433230206f7065726174696f6e20646964206e6044820152691bdd081cdd58d8d9595960b21b6064820152608401610155565b8015806108085750604051636eb1769f60e11b81523060048201526001600160a01b03838116602483015284169063dd62ed3e90604401602060405180830381865afa1580156107e2573d6000803e3d6000fd5b505050506040513d601f19601f820116820180604052508101906108069190610ca7565b155b6108735760405162461bcd60e51b815260206004820152603660248201527f5361666545524332303a20617070726f76652066726f6d206e6f6e2d7a65726f60448201527520746f206e6f6e2d7a65726f20616c6c6f77616e636560501b6064820152608401610155565b6105108363095ea7b360e01b84846040516024016104d9929190610cd6565b60606108a184846000856108a9565b949350505050565b60608247101561090a5760405162461bcd60e51b815260206004820152602660248201527f416464726573733a20696e73756666696369656e742062616c616e636520666f6044820152651c8818d85b1b60d21b6064820152608401610155565b600080866001600160a01b031685876040516109269190610d8c565b60006040518083038185875af1925050503d8060008114610963576040519150601f19603f3d011682016040523d82523d6000602084013e610968565b606091505b509150915061097987838387610984565b979650505050505050565b606083156109f35782516000036109ec576001600160a01b0385163b6109ec5760405162461bcd60e51b815260206004820152601d60248201527f416464726573733a2063616c6c20746f206e6f6e2d636f6e74726163740000006044820152606401610155565b50816108a1565b6108a18383815115610a085781518083602001fd5b8060405162461bcd60e51b81526004016101559190610da8565b6001600160a01b0391909116815260200190565b80356001600160a01b0381168114610a4d57600080fd5b919050565b600060208284031215610a6457600080fd5b610a6d82610a36565b9392505050565b803560018110610a4d57600080fd5b60008083601f840112610a9557600080fd5b5081356001600160401b03811115610aac57600080fd5b602083019150836020828501011115610ac457600080fd5b9250929050565b60008060008060008060008060e0898b031215610ae757600080fd5b610af089610a74565b9750610afe60208a01610a36565b9650610b0c60408a01610a36565b9550610b1a60608a01610a36565b94506080890135935060a0890135925060c08901356001600160401b03811115610b4357600080fd5b610b4f8b828c01610a83565b999c989b5096995094979396929594505050565b600080600080600080600060c0888a031215610b7e57600080fd5b610b8788610a74565b9650610b9560208901610a36565b9550610ba360408901610a36565b9450610bb160608901610a36565b93506080880135925060a08801356001600160401b03811115610bd357600080fd5b610bdf8a828b01610a83565b989b979a50959850939692959293505050565b600080600080600080600060c0888a031215610c0d57600080fd5b610c1688610a36565b9650610c2460208901610a36565b9550610c3260408901610a36565b9450606088013593506080880135925060a08801356001600160401b03811115610bd357600080fd5b6020808252602c908201527f4f6e6c79206f776e657220697320616c6c6f77656420746f20706572666f726d60408201526b103a3434b99030b1ba34b7b760a11b606082015260800190565b600060208284031215610cb957600080fd5b5051919050565b634e487b7160e01b600052602160045260246000fd5b6001600160a01b03929092168252602082015260400190565b8183823760009101908152919050565b60005b83811015610d1a578181015183820152602001610d02565b50506000910152565b60008151808452610d3b816020860160208601610cff565b601f01601f19169290920160200192915050565b82151581526040602082015260006108a16040830184610d23565b600060208284031215610d7c57600080fd5b81518015158114610a6d57600080fd5b60008251610d9e818460208701610cff565b9190910192915050565b602081526000610a6d6020830184610d2356fea2646970667358221220a88a9ff37eb2b28582a6de0e8558144043b849916895bfb4672a8579fb29598864736f6c63430008130033",
  "devdoc": {
    "kind": "dev",
    "methods": {},
    "version": 1
  },
  "userdoc": {
    "kind": "user",
    "methods": {},
    "version": 1
  },
  "storageLayout": {
    "storage": [],
    "types": null
  }
}